:020000041000EA
:10000000002008205B0100101B0100101D010010E2
:100010001101001011010010110100101101001058
:100020001901001019010010190100101F01001022
:10003000110100101901001021010010230100100E
:100040001101001011010010110100101101001028
:100050001101001011010010110100101101001018
:100060001101001011010010110100101101001008
:1000700011010010110100101101001011010010F8
:1000800011010010110100101101001011010010E8
:1000900011010010110100101101001011010010D8
:1000A00011010010110100101101001011010010C8
:1000B00011010010110100101101001011010010B8
:1000C00011010010110100101101001011010010A8
:1000D0001101001011010010110100101101001098
:1000E0001101001011010010110100101101001088
:1000F0001101001011010010110100101101001078
:100100001101001011010010110100101101001067
:10011000EFF30580103800BE00BE00BE00BE00BE7A
:1001200000BE00BEF2EB8871540001107400011093
:100130009C01001090A31AE7D3DEFFFF42012110BB
:10014000FF010000BC1A0100793512AB00201E49E6
:10015000086006C881F3088810474FF050400068D7
:1001600008B10020F3E70DA40ECC002902D000F066
:1001700012F8F9E71549164A002000E001C1914242
:10018000FCD114498847144988471449884700BE60
:10019000FDE701C901C29A42FBD370477400011008
:1001A00020010020A01C0020F41B011000000820EA
:1001B00000000820F41B0110001008200010082087
:1001C000000000007047000008ED00E0A01C0020C7
:1001D000FC4D0120E1AC0010E1010010D9AC001091
:1001E00080B500F05FF800F0E3F800F0A7FE01F042
:1001F00035F901F02DFB01F071FD01F0FBFE02F07D
:10020000FFF8002000F0BCF803F086F9192007F091
:10021000A1FA19234FF0010242EC44301C4DDFF8E3
:1002200080801C4C1C4F1D4E03F0BAF900F05AF8A8
:1002300000F0DCF903F01AF803F008FAD5E900122F
:10024000736A00280CBFA146B9469A42ECD8B06A3E
:10025000884201D29A42E7D098F80030192283F000
:10026000010388F8003043EC402008F08BFA4FF08F
:10027000FF326FF0004310EB090041F100018242B0
:1002800073EB010C3CBF10461946C5E90001CBE7F2
:1002900008A80020400D030040420F0000000B4062
:1002A000C14D012008B508F04FFE0B4B187030B15E
:1002B0000A490B4AC968914204BF02221A700022FF
:1002C000064BDA6000F020F8BDE8084001214FF449
:1002D0007A6008F0A3BD00BFE94D012000800D4009
:1002E0001E1DDEC008F090BD08F04CBA014B187816
:1002F000704700BFE94D0120014B024ADA607047A8
:1003000000800D401E1DDEC000B58BB000212822EC
:1003100068460EF02DFB01231849019301F11D00E1
:1003200011F8013F0AAA02EB830353F8282C8142FB
:1003300002F1010243F8282CF2D1019B082B1BD1BA
:10034000029B042B18D1039B042B15D1049B022B79
:1003500012D1059B022B0FD1069B022B0CD1079BC0
:10036000012B09D1089B032B06D1099B042B03D138
:10037000009B0BB90BB000BD08F07CFED8E9001063
:1003800008B5064B187008F0FDF9054BC3E90001EC
:1003900001F0CCF9BDE8084000F042B9DE4D012083
:1003A00040A80020014B1878704700BFDE4D0120A7
:1003B0002DE9F04F2DED028B794993B079480BF080
:1003C000B5F87949824677480BF0B0F801218146AB
:1003D00074480BF041F8754F0121386071480BF0FB
:1003E0003BF80024724B18602046062107F038F9CC
:1003F000204601220021013407F050F9082CF3D1E6
:10040000002420460021013407F094F9082CF8D18B
:1004100000259FED618B674A624E4FF4402B1570AB
:10042000009523462A46396830460BF0F1F88DEDE9
:100430000A8BCDE90CB50AAC0DF138080AF10303BB
:100440004FEACA1E4EEA033E94E80F0088E80F0008
:100450000DF1080CCDF83CE098E80F008CE80F0097
:100460004FF4000352464FF0010A396805933046B5
:1004700063460BF011F93B6832680AFA03F3134341
:1004800033608DED0A8BCDE90CB509F103034FEA1A
:10049000C91E4EEA033E94E80F0088E80F000DF1F4
:1004A000180CCDF83CE098E80F008CE80F004FF4F2
:1004B00000233F494A4609680893304663460BF0DB
:1004C000EBF83B4B32681B683B490AFA03F31343D2
:1004D000336030460BF02AF8384B8046186051469E
:1004E00030460AF0B9FF8DED0A8B8646CDE90CB592
:1004F00008F102034FEAC81C4CEA033C304B0DF1F3
:10050000380B186094E80F008BE80F00DFF8D890E4
:10051000CDF83CC09BE80F0084E80F00234642461C
:1005200071463046CDF830900BF0B6F850460BF0DF
:1005300007F9244B244A1860244B25491D70254B8C
:100540000D6015701D702449244A254B254C0D70F3
:1005500015701D6004F110050AF07AFF44F8040BD1
:10056000A542F9D1012338680E4900F110029340E9
:100570004A681A40FCD1800000F1A04000F500104C
:10058000084902614A681A40FCD1026113B0BDEC0F
:10059000028BBDE8F08F00BF0000010000F00100F9
:1005A00018EA00100000205008EA00106004012042
:1005B00088270120DB4D0120F8E900102C040120E0
:1005C000380401201C040120C94D0120E44D012004
:1005D00020040120C74D0120F64D0120C84D012007
:1005E000E00401204004012000000880094B1B7832
:1005F00073B1094B094A5868516A1B68884207D889
:10060000926A9A4202D30220FFF7BABE8842FAD118
:10061000704700BFC74D012048A8002000000B40D4
:1006200070B5002420460021013407F083F8082C1F
:10063000F8D1002201231B491B4C08681B4D1C49A3
:100640002A700A7022701B4900F1100293404A6818
:100650001A40FCD14FEA800C0CF1A04C0CF5001CA8
:100660001449CCF810204D681D40FCD1124B134E9C
:10067000134A1D703378CCF81050157003B970BD53
:100680000A2008F089F836787642F6B246FA05F183
:10069000284601F00101013507F04CF8082DF5D18D
:1006A000267070BD60040120DB4D0120F64D012055
:1006B000E44D012000002050C84D0120C94D01200B
:1006C000C74D012070B50024064E357845FA04F177
:1006D000204601F00101013407F02CF8082CF5D177
:1006E000357070BDDB4D0120014B1878704700BF9D
:1006F000C74D0120014B1878704700BFC84D01203D
:1007000000B58646DFF818C0BCE80F00CEF8000040
:10071000CEF80410CEF80820CEF80C3000BD00BF93
:1007200040040120F8B50F4616462D4910221D46FB
:100730000EF022F900284CD12A4B2B4A1F702B4B6C
:10074000187001202A4B196801F110039840536872
:100750000342FCD18A0002F1A04202F50012224CB1
:10076000176163680340FCD113610122214B2249C8
:100770001A700F707EB347F23053B34228BF33462E
:10078000642B4FF47A7438BF6423A3FB04461B4FD9
:100790003B6007F0F7FF00194FF0FF346FF00042A5
:1007A00046EB0101844272EB01063CBF2046114634
:1007B000134B0B4C1860596004F110060AF048FE08
:1007C00044F8040BB442F9D10DB13B682B60012011
:1007D000F8BD0020F8BD4FF4FA630A4CD7E700BF1C
:1007E00040040120E44D012000002050F64D01207E
:1007F00060040120C74D0120C84D0120E004012004
:1008000048A8002080841E000D4B1B7803B9704758
:100810000C4B10B51C6807F0B5FF4FF47A724FF01F
:10082000FF3E6FF0004CE4FB020186457CEB0102C9
:100830003CBF70466146044BC3E9000110BD00BFD8
:10084000C74D0120E004012048A800203B4B70B5B3
:100850001D78002D3ED03A4B1B7830EA030339D186
:100860000E46C107044630D4A20736D463073BD4F2
:10087000200740D4E10645D4A2064AD463064FD4EB
:10088000E30954D12F4A06EA040113782E4823EADB
:10089000040319432D4B046893F800C00123117021
:1008A0002B4804F11002934042681A42FCD1A40084
:1008B00004F1A04404F500142548C4F810C04268AF
:1008C0001342FCD12846216170BD184600F026FF76
:1008D0000028C9D00025284670BD012000F01EFF69
:1008E0000028F7D16307C3D5022000F017FF0028C6
:1008F000F0D12007BED5032000F010FF0028E9D179
:10090000E106B9D5042000F009FF0028E2D1A206D3
:10091000B4D5052000F002FF0028DBD16306AFD577
:10092000062000F0FBFE0028D4D1E309AAD007205E
:1009300000F0F4FE0028A5D0CCE700BFC74D012091
:10094000C84D0120F64D012060040120E44D012036
:10095000000020502DE9F843264BDFF8A4801D78D5
:1009600098F800606D4230EA06060746EDB211D0F5
:10097000002440EA050949FA04F1204601F001018A
:10098000013406F0D7FE082CF5D1022088F800903B
:1009900007F002FF0122184B1849186800F11003F4
:1009A0009A404B681340FCD10122810001F1A04123
:1009B00001F5001108300B6102FA00F30F4A546888
:1009C0001C40FCD1D1F820901EB907EA0900BDE80F
:1009D000F88345FA04F1204601F00101013406F0E4
:1009E000A9FE082CF5D188F8005007EA0900BDE8F7
:1009F000F88300BFC94D0120882701200000205046
:100A0000DB4D01202DE9F04F844B054618788946CF
:100A1000174683B0002840F0E180814EDFF84CB2E9
:100A2000052008F0A3F9DFF848827E4BD8F80020B3
:100A30007D4C0132012A38BF0122AB4228BF2B4630
:100A4000A4FB00C4001B04EB5004640C0134A54259
:100A500028BF1C46B9F5805F4D4628BF4FF480552E
:100A60007249C8F80020724A0C60156007F08AFECF
:100A700000224FF0010C4FF0004E6E4BC3E9000115
:100A80006D496E480A606E490A606E490A606E4997
:100A900003680A703268019302EB420A00EBCA0352
:100AA0006A490093019B01EBCA010CFA02FA23EA9E
:100AB0000A0A0432664B0CFA02F2C0F800A0C1F830
:100AC00000E0C1F800E01A60624A009B126805204D
:100AD00002F01F02C3F8D82008F048F907EE104AC8
:100AE000F0EE087A06EE900AB8EEC77AF8EE666A7B
:100AF00027EE277A9FED586AC6EE877A77EE867AD8
:100B0000BCEEE77A17EE103A99B23268002963D04A
:100B100007EE101AB8EE477ADFED506A77EEC77A23
:100B200067EEA67AFCEEE77ACDED007A9DF800E05C
:100B30004FEA0E2E4FF0010AB9F1000F08BF6FF017
:100B400070454FF0000902EB420C4FEACC0C334BDE
:100B50000CF1A04C4EEA014E4148DBF800100CF5B8
:100B6000001CCCF8C8E083F800A0131D920000EA36
:100B7000413002F1A042890101F1A04102F12012AD
:100B800040EA43430A6043F4F253364A43F0090310
:100B90004A608D60CB604846012109F1010906F0E9
:100BA000C9FDB9F1080FF6D1FF222F4B02201A70B0
:100BB00007F0F2FD0123214A3068116883400B439E
:100BC000136037B14FF48053D8F80020BB60C7E9F9
:100BD000002403B0BDE8F08F8E46ABE701204FF054
:100BE000A04E0F4EDFF85480DFF880B03268DBF89B
:100BF0000030D8F8004000FA02F224EA02029840DD
:100C0000C8F800200EEB8311CEF86404CA6812F015
:100C10008062FBD1014B1A7002E700BFC94D012071
:100C200038040120400D0300ADAA565534040120BC
:100C30002804012010A800203C04012000002050BE
:100C40002404012030040120CA4D0120D01020507E
:100C5000002020502C0401200000003B00008043B5
:100C6000FFFF01FC00400020DB4D01201C0401209F
:100C700020040120274A70B513780546ABB3264BF4
:100C80002648D3F800E0264C4FEA8E1303F1A0412A
:100C900049680668091BB6EB910F4FEA910430D8FA
:100CA000012104601F48DFF88CC00468DCF80000F4
:100CB00001FA04F420EA0400CCF800004FF0A04050
:100CC00001FA0EF103F1A043C0F86414DC6814F0DB
:100CD0008064FBD1147020460021013406F02AFD07
:100CE000082CF8D10022104B1A704DB10F490B4B54
:100CF0000F4A09681B68126803EB0133C5E900233A
:100D000070BDDFF828C0DCF800100131CCF800100D
:100D1000C6E700BFC94D01201C04012024040120A6
:100D20000040002038040120DB4D01203C0401205C
:100D3000200401200000205000285ED0DFF810C100
:100D4000DCF800C0844501D000207047F0B5DFF822
:100D500004C13A4C3A4D9CF800E0D4F800C02C682D
:100D60002746BEF1000F18D0DFF8ECE0DEF800E017
:100D70004FEA8E1E0EF1A04EDEF80460DFF8DCE0D4
:100D8000A6EB0E0EBCEB9E0F4FEA9E0602D9013475
:100D900027462C60B446294D2E600CEB0734B4F581
:100DA000805F254638BF4FF48054A4F5805C8C45A5
:100DB00008D9DFF890E0DEF80040611A6144CEF80F
:100DC00000106146A94219D34FF0000C059B0BB1EE
:100DD000A3F800C0069B73B119461A4B1A4A1B6848
:100DE000C1E900058B60D2E90001184B069A1B6827
:100DF000C2E9040193610120F0BD7047A5EB010C2D
:100E0000624528BF6246B2F5805F944628BF4FF422
:100E1000805C002ADAD0C3F101021446DFF83CE01E
:100E2000013B1144CA18C2F30B025EF8222003F8FA
:100E3000012FE2189445F5D8C8E700BF240401202B
:100E40003C0401203004012010A8002034040120BB
:100E500020040120C94D01201C0401200040002075
:100E600030B52B4905460B7883B0D3B1294B2A48BE
:100E70001B689B0103F1A0425268121A27484FEAEF
:100E8000920C0468B4EB920F06D9DFF8A0E0DEF80C
:100E900000200132CEF80020214AC0F800C01268BC
:100EA00022B9204B187818BB03B030BD03F1A04322
:100EB000186910F08060F4D10122DFF878E0DFF8E3
:100EC00078C0DEF800E0DCF8003002FA0EF223EA27
:100ED0000203CCF8003008700021019006F02AFCD3
:100EE000019801300828F7D100210F4A0D4B1170ED
:100EF00000221A704DB10D49084B0D4A09681B6854
:100F0000126803EB0133C5E90023012003B030BDB3
:100F1000C94D01201C0401200040002024040120B0
:100F200028040120CA4D0120DB4D01203C04012092
:100F300020040120380401200000205010B50AF0E0
:100F400011FC1A2420461F2106F08AFB00222046AD
:100F5000114606F0A3FB20460021013406F0EAFB0F
:100F60001D2CEFD1084A094B116802F580520B4045
:100F7000136001200AF0E4FB0023054C0549064AF2
:100F800020600B70136010BD00000A400000FF01DC
:100F900068040120C44D01208C2701202DE9F04375
:100FA000DFF890821C4698F8006083B000F00703D9
:100FB000002E3AD0864E874DD6F800E0DFF850C2BA
:100FC0004FEA8E1707F1A0467668761BDCF80050D2
:100FD0004FEA5609B5EB560F37D8CCF800904FF0D2
:100FE000010C08250CFA0EFC4FF0A04E7A4E07F1CA
:100FF000A0473560A6F540563568784E2E40784DAE
:101000002E60CEF864C4FE687601FCD4754F3E684D
:10101000F505FCD5BE68F60504D4724EF768B768CE
:10102000FD05FBD5002688F800609BB954B14FF44C
:10103000006140F6E4426C486360006823722060FF
:10104000E160228203B0BDE8F083684E3568013567
:101050003560C2E7814609200E461546019307F028
:1010600085FE634A604F904296BF624A624AA2FB85
:101070000012624998BF9209A1FB0010800B411C2D
:10108000B14238BF3146914228BF1146019B0191C0
:1010900039685B4A0131012938BF0121B5F5006F7C
:1010A0002E4628BF4FF4006658081370396000F0D0
:1010B0008D8009F0010100F00100014401EB930370
:1010C000504A1370019A504B1A60504B1E6007F043
:1010D00059FB00234A4ADFF860C1CCE900011178CE
:1010E000424A13604A4A13604A4A13604A4A1370DC
:1010F000CA0769D48B0766D411F0040318BF022312
:1011000062D1384A3648D2F800C08CEA030303F4AF
:1011100070430360136883EA0141304B0B40036066
:1011200091683E4B81F0807181F009011940816026
:10113000092007F01BFE019ADFED396AB0FBF2F0DF
:10114000602838BF6020013807EE900AF8EE677A11
:101150009FED347A77EEA67A67EE877AFCEEE77A2F
:10116000002D08BF6FF070461E4A1948C2ED047A80
:10117000DFF8C8C002682C480CEA423C920102F138
:10118000A0422A49106013484CEA010150604FF018
:10119000010E9660D1600821254B196088F800E0A7
:1011A000002C3FF44FAF3B684FF400622360019B7B
:1011B0001449636040F6E4430978E26021722382B7
:1011C00003B0BDE8F08301231B039AE7012377E70F
:1011D000680401200090002000300A400000FF0158
:1011E00000100A4000000A408C270120804D012099
:1011F0005FF82401ABAAAAAA400D0300CD48E83F3E
:10120000CC4D0120CB4D01201C270120F0040120F2
:10121000DC040120FC040120DC4D01200F00000F44
:101220000000003B000080430C000A40451C6000A9
:1012300000200A40C44D012048AA0020FFFF01FC05
:10124000002860D0DFF818C1DCF800C0844501D068
:1012500000207047F0B5DFF80CC13A4C3A4D9CF8CD
:1012600000E0D4F800C02C682746BEF1000F17D06C
:10127000DFF8F4E0354EDEF800E04FEA8E1E0EF1A6
:10128000A04EDEF804E0AEEB060EBCEB5E0F4FEABC
:101290005E0602D9013427462C60B446294D2E60E3
:1012A0000CEBC724B4F5006F254638BF4FF400643B
:1012B000A4F5006C8C4508D9DFF894E0DEF8004016
:1012C000611A6144CEF800106146A9421CD34FF068
:1012D000000E059B0BB1A3F800E0069B8BB11A46EC
:1012E0001C461B4BC2E900051B681A4993601A4A49
:1012F0001A4B12681B78D1E90001C4E90401A2610C
:1013000023770120F0BD7047A5EB010C624528BF93
:101310006246B2F5006F964628BF4FF4006E002A71
:10132000D7D00022094C023B01EB020CCCF30A0C93
:1013300034F81CC00132CCF30B0C964523F802CFD5
:10134000F2D8C6E7DC040120804D01200090002087
:10135000FC04012048AA00201C270120CB4D0120BD
:101360008C270120C44D012068040120DFF8E4C06F
:1013700030B59CF80030BBB12C4B2D4CD3F800E0BD
:101380002C4A4FEA8E1101F1A0435B681B1B1468C5
:101390005D08B4EB530F03D9274B1C6801341C6064
:1013A000264B15601B6823B9254A137873BB184672
:1013B00030BD01F1A04213694FF0A0415B01F3D4AD
:1013C000012308251F4C03FA0EF3DFF880E02560A7
:1013D000DEF80040DFF880E004EA0E0E1A4CC4F894
:1013E00000E0C1F86434D3685D01FCD4174A136887
:1013F000DC05FCD59368D90504D4144BDA689A68E7
:10140000D205FBD500230E4A8CF800300023137060
:1014100048B10949074B0E4A09681B68126803EB7B
:10142000C123C0E900230123184630BD6804012010
:1014300000900020DC040120804D0120F0040120F8
:10144000DC4D012000300A4000100A4000000A4034
:101450008C270120C44D01200000FF010023034A16
:101460000349C2E900330B60704700BF100401203C
:10147000B4280120072801D9002070472DE9F04F3A
:101480002DED028B85B09946064615460C46FFF7B2
:1014900031F9F04010F00103984612D07708B4B942
:1014A000924DAA5D002A40F0F380109B1BB11A46B2
:1014B000002313609380012005B0BDEC028BBDE8D2
:1014C000F08F002005B0BDEC028BBDE8F08FB9F5C0
:1014D0007A7F4B4628BF4FF47A730520994607F070
:1014E00045FC834ADFF828B2A2FB0024814AE40DC0
:1014F000AA4228BF2A4605200134A54228BF144627
:1015000007F034FCDFF80CC207EB87029200009270
:1015100093441CF80720DFF800E222B15EF8272090
:10152000A24200F09280B0FBF4F5B5F5803F40F2A6
:10153000D5804246610003E0FF2A00F0C7806118B1
:10154000B0FBF1F5B5F5803F02F10102F4D807EEEA
:10155000902AB8EEE77AFCEEC77ACDED017A9DF8D5
:10156000043008EE103A1B010393814200F28D8093
:10157000B5F5803F28BF4FF48035691E89B20A4611
:1015800001F1010801200CF807005B488DED017A9C
:1015900000EB870080ED007A5848029220F817107F
:1015A000042130464EF8274006F05AF8FFF78AF833
:1015B0009DED017AF8EEC87AF3EE006A37EE677AAD
:1015C00027EE267AFCEEC77A009B09FB08F003F1B0
:1015D00080454B4B05F5282E07EB8701A3FB00C088
:1015E0008900DEF80030029A01F1804101F52821DE
:1015F00003F0010305F529252B600A61CDED007A82
:10160000039B9DF80020C0F38F101A4306F00103DE
:101610004A60002B36D03B490004DBF800204240F2
:101620000A400BF580510A60DEF80020D24302F038
:1016300001022A6001212D4A109B9155002B3FF495
:101640003AAF1C60A3F8049035E72C4A2C4932F8D5
:101650001720304602FB0992A1FB021204219509D2
:1016600005F0FEFFFFF72EF806F00103AAB253BB08
:101670004FF6FF70DBF80010514001400BF580522F
:101680001160D7E74FF6FF71C7E70022114679E7EF
:101690000621304605F0E4FFFFF714F8AC5586F05C
:1016A0000103EB5C002B7FF400AF07EB87039B008B
:1016B00003F1804303F52822126803F5292302F081
:1016C00001021A60F1E60F481204D3E74FF47F637A
:1016D00008EE102A9FED0C7A039346E71023B7EE2D
:1016E000007A21469FED098A03933EE7100401200A
:1016F00081808080A0860100A4280120C8280120C4
:10170000D34D62100000FFFF00007F430100000086
:101710000C800A40B4280120B828012007289ABF6D
:10172000014B185C002070471004012010B5444C98
:101730002378002B2DD16378002B35D1A378002B93
:101740003DD1E378002B45D12379002B4DD163792E
:10175000002B55D1A379002B5DD1E379002B65D106
:101760000022384838490468384B04F001040C6002
:1017700044691A7004F001044C61846A5A7004F0E0
:1017800001048C62C06B9A7000F00100C863DA70CB
:1017900010BD0621002005F063FFFEF793FF002334
:1017A00023706378002BC9D00621012005F058FF73
:1017B000FEF788FF00236370A378002BC1D00621B9
:1017C000022005F04DFFFEF77DFF0023A370E378B4
:1017D000002BB9D00621032005F042FFFEF772FF6F
:1017E0000023E3702379002BB1D00621042005F0FB
:1017F00037FFFEF767FF002323716379002BA9D021
:101800000621052005F02CFFFEF75CFF0023637125
:10181000A379002BA1D00621084605F021FFFEF791
:1018200051FF0023A371E379002B99D006210720F3
:1018300005F016FFFEF746FF0023E37190E700BFB7
:101840001004012000800A4000900A40B4280120C2
:1018500008B5012009F074FF054B1860012009F05C
:101860006FFF00220349044B08601A7008BD00BFD7
:1018700068270120744D0120CD4D01202DE9F04352
:10188000454D074628781C4683B000285DD1434E5D
:101890004B1FDBB2042B02F1FF33DBB234BF8946AE
:1018A0004FF00809022B28BF0122012C05D0A4F11A
:1018B0000204B4FA84F4640964003946384F009293
:1018C000384607F0DFF82346009A494680463846F6
:1018D00007F06EF90121384607F0A8F9022110201F
:1018E00005F0BEFE0221112005F0BAFE0022012102
:1018F000112005F0D3FE012300226FF07044294827
:101900002B703368284900EA4330014327489B0184
:101910000260274803F1A043026026481F6002606E
:10192000254802602548026025480260254802607B
:1019300025480260254A5A609C60D9600A9B0BB119
:10194000C3F8008003B0BDE8F08301204FF0A04E43
:10195000124ED6F800C000FA0CF00EEB8C13CEF845
:101960006404D8684001FCD40120194BD3F800C0AE
:101970004FEA8C1300FA0CF003F1A043CEF8640494
:10198000D8684001FCD40648CDE9001207F002F9FE
:10199000DDE900127CE700BFCD4D01206827012062
:1019A00000000740FFFF01FC451A3A008427012090
:1019B000742701207C270120242701208404012092
:1019C00004050120180401200005012000A00020CA
:1019D000744D0120304BF0B593F800E0BEF1000FDC
:1019E00045D02E4B1B684FEA831C1F460CF1A043C9
:1019F0001B695A013DD4B1F5007F0D4628BF4FF455
:101A00000075002945D06B1E052B254E35D9721E59
:101A1000121A022A034630D93246AC0800EB84047D
:101A200053F8041BA34242F8041BF9D1AB0710D0B2
:101A300025F0030293B2825CF2545A1C92B2AA427D
:101A400007D20233815C9BB29D42B15401D9C25C82
:101A5000F254144A0CF1A0431E605A60124A9D6071
:101A600002EA473242F4601242F01102DA60704634
:101A7000F0BD4FF0000E7046F0BD00220849431E35
:101A8000013213F8010F92B2954201F8010BF7D819
:101A9000DFE7034EDDE700BFCD4D0120744D01208F
:101AA0008049012000000740FFFF01FC2DE9F04FB5
:101AB000614C8446207887B00392002800F0B38000
:101AC0001A465E4B5E4E1B68DFF890E19B0103F106
:101AD000A0435B68DFF888913568DEF80070A3EBFF
:101AE0000903B5EB530F4FEA530488BF0137346045
:101AF00004EB472488BFCEF80070B4F5007F26467B
:101B000038BF4FF400764F4BA6F50076D3F800A00F
:101B1000B24507D24C4F1E603B68A3EB0A03B246A6
:101B200033443B60544540F28180A4EB0A04644591
:101B300028BF6446B4F5007FA34628BF4FF4007B5E
:101B4000002C59D00025C1F1010602965644019699
:101B5000A8462F462E463D4B3D4CD3F800C03D4B8A
:101B6000CDE904A2D3F800E03B4B24681B6801399F
:101B7000019A0A44C2F3080239F8122002F4807A6A
:101B8000BAF1000F0CF1010A18BFD44602F4007A32
:101B900018BF0646BAF1000F0EF1010A18BFD6466B
:101BA00002F4806A01F8012F18BF074602F40062B0
:101BB000BAF1000F03F1010A1CBF80465346002A08
:101BC00004F1010218BF1446029A18BF05468A188C
:101BD0009345CDD8DDE904A20DB11D490C60B8F1E3
:101BE000000F01D01C490B6017B11A4BC3F800E07D
:101BF00016B1164BC3F800C012490BEB0A030B6079
:101C000003995B46B1B972B11049124B09681B6860
:101C1000114CC2E900130E4924680B4B09681B687C
:101C2000C2E90241136107B0BDE8F08F03990023B8
:101C30000029E8D00B80E6E7CD4D01206827012080
:101C4000742701207C2701202427012084040120FF
:101C5000000501200405012018040120842701202B
:101C600000A0002001291AD0022910D0B1B9154ACC
:101C7000036810781B6910BB1348144902788B5411
:101C8000531C134A0370136801331360704701201B
:101C9000104A0C4913680870034413607047DFF85A
:101CA00028C00A499CF800300268C85C0A491061E3
:101CB0000A68013301328CF800300A60704702482C
:101CC0001170DEE7ED4D0120EE4D0120A02701202F
:101CD00098270120A02801209C27012008B50D4944
:101CE0000D4809F0CFFE0321142005F0B9FC0321B3
:101CF000152005F0B5FC00220121142005F0CEFCD2
:101D000000220121152005F0C9FC0022034B1A70A6
:101D100008BD00BFA086010050160020EC4D012038
:101D20002DE9F04F87B0BDF84050164681460A466F
:101D30001C46129F002D64D041F288339D4228BF7B
:101D40001D46002E32D1002C58D04FF47A78A5FBD6
:101D5000088506F017FD4FF0FF326FF0004310EBDF
:101D6000080045EB0105824273EB05013CBF1046BC
:101D70001D462346002449460290119A5048039577
:101D8000009409F0E7FE411C00F08C80821C00F0FA
:101D90009380A346A24604462FB187F800A087F897
:101DA00001B07E80BC8007B0BDE8F08F4FF47A7838
:101DB000059206F0E7FC4FF0FF3C6FF00043A5FBF7
:101DC000088510EB080045EB0101844573EB010E1B
:101DD0003CBF60461946CDE90201211E18BF012112
:101DE00033460091059A4946354809F097FE431C51
:101DF0005CD0861C07D00646002CAAD1A346A2467A
:101E0000CAE764259DE700264FF0020AB3462C4836
:101E100009F0DCFD0521152005F022FC0521142028
:101E200005F01EFC15244FF0010949EC4440142034
:101E30004FF0000848EC44000022012105F02EFC80
:101E400000220121204605F029FC0925152448EC33
:101E500040400520002106F04FFB49EC40400520A2
:101E6000002106F049FB4FF050435B68DB0201D4D0
:101E7000013DEBD11349124809F004FE032114205F
:101E800005F0EEFB0321152005F0EAFB00220121FD
:101E9000142005F003FC00220121152005F0FEFBB3
:101EA000002479E74FF0010BA24675E700244FF0BC
:101EB000010A2646A3466FE74FF0020BA246A6E7AB
:101EC00050160020A08601002DE9F043244E8046E4
:101ED0003378894683B0F3B9224F234D234C2AB17E
:101EE0003B6813602B685360236893604FF48072E3
:101EF00000211F480CF03CFD00223A602A6022605D
:101F000001241C490A701C490C70B8F1000F0AD159
:101F100003B0BDE8F0831948019209F05FFE002389
:101F2000019A3370D8E70321122005F099FB0321B1
:101F3000132005F095FB21460022122005F0AEFB90
:101F400021460022132005F0A9FB0D4A0B4809F099
:101F50007F0109F01BFE347003B0BDE8F08300BFC1
:101F6000EC4D0120982701209C270120A02801206A
:101F7000A0270120EE4D0120ED4D01204816002044
:101F8000651C001070B50124002682B007210820CE
:101F900005F066FB154D0721092005F061FB0721BF
:101FA0000A2005F05DFB29682346082200941048AA
:101FB00009F02EFB00942346296809220C4809F0F9
:101FC00027FB23460A2229680948009609F020FBCE
:101FD00031460A2005F0AEFB0B2005F0BBFB0B23BE
:101FE00044EC443044EC403002B070BDD0280120B5
:101FF0000000305070B51B4C84B020461A4909F0DF
:1020000095FA01210546204609F026FA174E306060
:10201000FFF7B8FF4FF48032154B009202932A4627
:102020006B1CE8010125134940EA033020F0C04051
:102030006B46039101903168204609F02DFB33680F
:10204000226805FA03F313432360284609F078FB5E
:10205000094B1860284609F073FB084B186004B060
:1020600070BD00BF0000305028EA0010D0280120C9
:1020700000008F1009201520784D01206C270120C9
:10208000012210B508240C4B0C4918680B688240DB
:1020900023EA02030B60204605F05CFB0022204689
:1020A000114605F0FBFA20460021013405F042FB01
:1020B0000C2CF0D110BD00BFD02801200000305002
:1020C000FFF760BF10B9B3F5FA7F01D9012070475F
:1020D0002DE9F04182B0009315460C4601F03AFC20
:1020E000009B002840F05481AA4920468C4242F2CD
:1020F000107228BF0846904238BF1046804633B958
:10210000099B03B11860002002B0BDE8F0810520F2
:10211000009306F02BFE07EE108A06EE900AF1EE11
:10212000007AB8EEC77AF8EE666A27EE277A9FED56
:102130009A6AC6EE877A012177EE867A974BDFF8A6
:1021400074E21868964A00EB400C4FEACC0CDEF8BB
:102150000030624400F1040C01FA0CFC814023EAD7
:1021600001014FF00043BCEEE77ACEF80010136097
:102170001360A3F13F53A3F57E23C3F800C017EE0D
:10218000103A9AB2009B002A00F0D08007EE102A85
:10219000B8EE477ADFED836A77EEC77A67EEA67A04
:1021A000FCEEE77ACDED007A9DF800C04FEA0C2CEA
:1021B00000EB4001C90001F1A0414CEA024C01F5DD
:1021C0004011C1F8C8C0AC46DFF8F8E11C46EB1876
:1021D0001CF8012B110101EB1211C1F385028900DA
:1021E00002F0330201F0CC0111434A08490002F029
:1021F000550201F4D571114363450EF8011BE7D177
:102200000194694D694C6A4922682B6801EA42329F
:1022100001EA433C00F1080142EA41420C304CEA39
:10222000404C42F0110601210A2000964CF0410773
:1022300005F080FA0B224FF0000141EC4020012212
:10224000564B5C491B68D1F800C09A4042EA0C0228
:1022500059485A4E0A604FEA830E22687644704409
:10226000D5F800E09201019B4FEA8E1C02F1A04ECE
:10227000534A0CF1A04108604A608B60CF6051491D
:102280001446CEF80010CEF80460009ECEF8083058
:102290001D46CEF80C6007E001F052FB424B1B6874
:1022A000002845D14FEA831C0CF1A04CDCF810103B
:1022B00011F08061F0D1CDE900544FF00B0C0120FA
:1022C00040EC40C0354BDFF8ECE0D3F800C0DEF85E
:1022D000003000FA0CFC23EA0C0CCEF800C00A20F7
:1022E00005F028FADDF820C0009B019A634412F83B
:1022F000010B010101EB1011C1F38500890000F011
:10230000330001F0CC0101434808490000F05500BA
:1023100001F4D57101430CF8011B6345E7D1099B1A
:10232000002B3FF4F0AEC3F80080ECE694463FE7A4
:102330009E461A4B4FF0A04118680123DFF874C085
:1023400003FA00F0DCF8002022EA0002CCF80020BA
:10235000164A12689340C1F8643401EB8212D368C4
:102360005B01FCD401234FEA8E1C03FA0EF30CF13F
:10237000A04CC1F86434DCF80C1011F08061FAD183
:102380000B234FF0010242EC40300A2005F0D2F955
:102390000220B9E640420F000000003BD028012097
:1023A000D0103050000080436C270120784D012070
:1023B000FFFF01FC0000305023003050100030506F
:1023C00050A80020804B01204FF050431B68094A61
:1023D00003EBC30302EBC3035B6B5B0008D54FF059
:1023E0008041054B054AC3F834121368013313606A
:1023F000704700BF4882024000800240E028012070
:102400002DE9F04144498AB0444809F08FF8012190
:102410000746424809F020F800240125404E0821D3
:1024200030600C2005F01CF908210D2005F018F98A
:1024300008210E2005F014F90094316801230D22C3
:10244000364809F0E5F800952B4631680E223348EE
:1024500009F0DEF84FF440234FEAC71ECDE90434FB
:10246000FB1C4EEA033E4FF480324FF4F8339FEDED
:10247000287BCDE902230DF1080C0DF118089CE82A
:102480000F0088E80F00CDF81CE098E80F008CE8FA
:102490000F0063463A46316820488DED047B09F011
:1024A000FBF80F2005F056F90F2044EC44002246BB
:1024B000294605F0F3F82A4621460C2005F0EEF8EF
:1024C0002A4621460D2005F0E9F821460C2005F0AA
:1024D00031F921460D2005F02DF9284609F030F993
:1024E000104B114E1860284609F02AF902460F4B8E
:1024F0004FF400400E491A60347005F003F9294684
:10250000152005F069FA0AB0BDE8F081AFF300804C
:1025100000008F100E80160040EA001000004050AE
:10252000D42801207C4D0120D54D012070270120A9
:10253000C92300102DE9F0475E4C814626780D46F0
:10254000002E71D13746002D00F0B1805A4A2F601D
:1025500013686E60AB6000235849594813600360EC
:102560000B60B9F1000F5DD001210C2005F0E2F8FD
:1025700001210D2005F0DEF84FF0004001266FF03C
:10258000704E504BDFF868C119684F4B01EB4102A8
:10259000D200985098504D4A0B1D06FA03F3136071
:1025A0004B4B01F114071D684A4B18684A4B03EA6C
:1025B000453242EA474203EA403342F4C25701F14E
:1025C0001002AD01800143EA4243444A05F1A048AC
:1025D00000F1A04588008218C8F80020404A43F462
:1025E0004473C8F804203F4A844433433743C8F84F
:1025F00008E0C8F80C702A60C5F804C0C5F808E007
:10260000EB60394B06FA01F11A683848114319603A
:102610004FF080433246C0F8343204210F2005F0D9
:102620004FF82670BDE8F0874FF0A04C0120284BF2
:102630002849D3F800E06FF070430E6821494FEA53
:102640008E1A0A680AEB0C070CEB8611BF68DFF8DC
:10265000988000FA02F2B0408E68DF1B9E1BD8F80B
:10266000003023EA0203C8F80030CCF86404CB68D9
:102670005B01FCD4012202FA0EF20AF1A043CCF86D
:102680006424DA6812F08068FBD141460C2005F022
:1026900051F841460D2005F04DF8424604210F2027
:1026A00005F00EF884F80080002D7FF44FAF024A49
:1026B00051E700BFD54D0120E028012080270120EF
:1026C00078270120D4280120D0104050002040500D
:1026D000702701207C4D0120FFFF01FC23004050AA
:1026E00000A4002038EA00100000405000800240A2
:1026F000100040502DE9F0479946374B1C78002CCC
:1027000064D005466FF07040344B354F1B689046DF
:102710009B0103F1A0439B683A68C01AB0F5807F23
:10272000064638BF4FF48076A6F58076B24209D2CD
:10273000DFF8B4C03E60DCF800309B1A3246334408
:10274000CCF80030904244D9831AAB4228BF2B46C4
:102750009A4643B34B1E234EC1F1010111440AEBCB
:10276000030501EB030C5FFA8CFC16F80CE04FEA52
:102770000E1C0CEB1E1CCCF3850E4FEA8C0C0EF0DD
:10278000330E0CF0CC0C4CEA0E0C4FEA5C0E4FEA08
:102790004C0C0EF0550E0CF4D57C4EEA0C0E03F8E2
:1027A00001EF9D42DDD1534652443A60B8F1000F2B
:1027B00001D0A8F80030B9F1000F01D0C9F800002D
:1027C000089B1BB11A46084B1B6813602046BDE8E6
:1027D000F0870023EAE700BFD54D012070270120D4
:1027E0008027012000A4002078270120C9B34FF0E2
:1027F000FF3300B518441C4A014410F801EF8EEA7B
:10280000030E4EF300034EF3400C134083EA5E03C5
:102810000CEA020C8CEA530C43F340034CF3400ED9
:10282000134083EA5C030EEA020E8EEA530E43F372
:1028300040034EF3400C134083EA5E030CEA020CA3
:102840008CEA530C43F3400313404CF3400E83EAED
:102850005C0381420EEA020C8CEA5303CDD1D843CB
:1028600000BD0846704700BF783BF682002310B4D5
:10287000034C0449044A23700860136010BC70477D
:10288000F04D0120F8040120B8040120002900F0D7
:1028900023812DE9F04F4518DFF8B082984EDFF81C
:1028A0007492DFF884A29DB0441E013D14F8017FAC
:1028B000FDF71AFD3378C8E90001032B0FD8DFE8D4
:1028C00003F01D501302D9F800308E4A03F1010BBA
:1028D000BBF1040FD754C9F800B000F08980AC42B6
:1028E000E4D11DB0BDE8F08FDAF80030013BCAF842
:1028F0000030002BF3D103233370F0E7DFF850B240
:10290000814ADBF80030D7540133132BCBF8003069
:1029100032D9DFF804E27C4FF4460FCFACE80F0069
:102920003B68CCF800309EF80430012B3CD1DEF837
:102930001020B2F5804F00F2C980B2F5005F8CBF65
:1029400001200020714908702AD8002A4FF00001A8
:1029500008BF03236E4A1160002233706D4B1A606A
:10296000BDE76B4A6C4B6D4819691368C754013356
:102970008B421360B3D1BEE7042BB0D11146684B34
:1029800012689A42ABD00322084601310BF0ECFFEB
:102990000323644ACBF800301368013313609EE7C9
:1029A000614B1A600223D7E740F201400221002365
:1029B0005E4A5F4F7860F9813B61136814210133EF
:1029C0001360DEF808303846BB60BEF80C30BB81BF
:1029D000534B3B60FFF70AFF564B78611B6813B1FE
:1029E0003846182198470023CBF80030337076E73B
:1029F000464B1B78002B70D1424BDFF83CC11B6863
:102A0000DFF804E10493424B1F68BEE80F00ACE816
:102A10000F00DEF80030CCF80030002F4FD14648D0
:102A200007F11401FFF7E2FE049B3B4A8342B2F830
:102A30000CC021D0002340F2014004213C4FD2F8C9
:102A400008E03E4A3B611368C7F808E00133A7F885
:102A50000CC07860F9811360314B142138463B601B
:102A6000FFF7C4FE334B78611B6813B13846182159
:102A70009847DFF8DCB0B6E7314B0CF1FF3219684C
:102A800001311960182A65D8DFE812F04C024202C1
:102A9000E50164006400C001A2018F0179016D01AC
:102AA0000203CB02A70275026103300390035601B3
:102AB0001501E5002301CA009900640089003A4627
:102AC00016490CF104000BF043FFA8E740F2014067
:102AD000032100231B4A6CE77047002340F2014C9E
:102AE0000620134F18493B610B680B4A01330B60FA
:102AF0009368C7F804C0BB609389F881BB81ABE7DA
:102B0000F04D012058040120A4040120E34D0120D0
:102B1000082501205C040120900401200805012003
:102B20004C474953E80401209427012074040120F4
:102B300028290120F8040120CCBE00206C040120CB
:102B400080040120700401207804012038A80020AE
:102B5000B8040120A34B0122996840F20143A24F1F
:102B6000BB80A24B3B600023FA8114229B46B960D4
:102B7000A7F80CC00492FB803B6104999A48FFF7C8
:102B800035FE049BF8509A4B1B68002B3FF471AF45
:102B90000BF1180194489847DFF86CB223E7954B86
:102BA0001B68022B00F019830522042301208E4F9D
:102BB0008C497B718D4B896838713B60D3E78D4BB5
:102BC000D3F800B0FDF720FEFDF78EFB41F6F8725A
:102BD000894B5A4528BF5A46C3E90001BBF1000F93
:102BE00040F027837F4B02F1080BB3F80CC002F1D1
:102BF0001C0304937B4B40F20122996800237A4F17
:102C0000FB817A4BB9607A607B495A4607F1140020
:102C1000A7F80CC0C7F810B03B600BF099FEACE70A
:102C2000744B1B68042BBFD1744B0CA91878003867
:102C300018BF0120FFF77EFC20226F4B04920D9AF3
:102C40004FF00C0B5A600E9A9A600C9A1A60654B02
:102C5000B3F80CC0CEE7674B1B68022BA4D141F63A
:102C6000E8734FF0000B654A6549108807AA98423F
:102C700028BF18460CABADF81CB0FEF717FF0028B4
:102C800000F0A5825C4B0D99BDF81C2059600E998F
:102C9000A3F816B099600F999A82D960109902F141
:102CA000180B19610C9919604E4BB3F80CC002F166
:102CB0002C0304939EE74F4B50481988FEF78AFE79
:102CC000484BB3F80CC000283FF46EAF002202233B
:102CD0006CE7484B196807297FF666AF474AD388E7
:102CE00003F1080B59457FF45FAF41F6F8718B4251
:102CF0003FF65AAF434F0DF1300CD2F8021012F8E4
:102D0000080BCDF804C000970493FFF7DBF9022805
:102D1000049B00F09682002840F05982394A22F83C
:102D2000043C1C3304930C9B22F8020C42F8083C30
:102D30002C4BB3F80CC05DE72E4B1B68082B7FF4BF
:102D400033AF2E480CAB0093837942790179006848
:102D5000FEF794FD1822284B04920C9A1A60214B1E
:102D6000B3F80CC046E7234B1B68082B7FF41CAF5D
:102D7000224B0CAAD3E90001FDF744FE5CE71D4B92
:102D8000D3F800B0BBF1020F7FF40EAF1B4B1888D5
:102D9000010AC0B2FDF75AFD124BB3F80CC000286F
:102DA0003FF402AF5B46002200E7124BD3F800B0BD
:102DB000BBF1010F7FF4F8AE104B1878FDF7CAFD98
:102DC0000D4B187015230493064BB3F80CC011E794
:102DD0000420FDF7D5FA034900220223B1F80CC004
:102DE000E4E600BF90040120282901204C47495304
:102DF000F8040120082501209CE30020080501209B
:102E0000B4E30020A4E30020B8040120A84B1B6811
:102E1000182B04937FF4C8AE0023DFF8C8E20DF14D
:102E2000300C0793BEE80F00ACE80F009EE80300EB
:102E30008CE803000A4607AB9DF840100CA8FDF78C
:102E400071FC002800F0C3819A4B079A1A609A4BD4
:102E5000B3F80CC0CEE6402200210CA80BF088FD90
:102E6000FDF742FACDE90C01FDF740FA8DF8380084
:102E7000FDF798FA8DF83900FDF736FC8DF83A0029
:102E8000FDF738FC8D4B8DF83B001B6816A80F939F
:102E90008B4B884F1B684FF0400B1093894B1B687E
:102EA0001193894B1B681293884B1B681393884BB3
:102EB0001B681493874B1B681593FDF721FC07A82B
:102EC00000F002FE002354228DF86B309DF81C3078
:102ED0000DF1300E8DF868309DF81D3004928DF89C
:102EE00069309DF81E308DF86A30089B1B93BEE850
:102EF0000F000FC7BEE80F000FC7BEE80F000FC7D7
:102F00006D4BB3F80CC09EE80F0087E80F0071E628
:102F1000684B7149714A4FF0080BC3E900121C233A
:102F2000049367E607A808F043F8DDE907014FF0CE
:102F300001130C930023CDE90D0130218DF84B30A6
:102F40005D4A674B0DF13C0EB2F80CC004910FCBFB
:102F5000AEE807002EF8023B1B0C8EF800300CAFD9
:102F60000FCF0597534F4FF01C0B0FC7059A07CA99
:102F700087E807003EE64E4B1B680C2B7FF414AE2F
:102F8000584807ABD0E901120078FEF707F8002394
:102F90002822ADF839308DF83B30ADF84230079B30
:102FA000444F0C93089B0DF1300E0D939DF8243087
:102FB00004928DF838300A9B4FF0140B0F93BDF834
:102FC0002C30ADF840303C4BB3F80CC0BEE80F00DD
:102FD0000FC7DEF800303B600CE6354B1B680C2B4E
:102FE0007FF4E2AD3F480CAB009341780389003990
:102FF00018BF012142680078FEF73CFA002800F073
:10300000E68000222B4B4FF0080BDA80BDF834200D
:103010009A800C9A1A601C230493274BB3F80CC0B7
:10302000E8E5234B1B680C2B7FF4BEAD41F6E4733F
:103030004FF0000B2B480CAA01920289ADF81CB08E
:103040009A4228BF1A4607AB0093D0E90001264BED
:10305000FDF772FE002800F0BA80164B0D99BDF8FE
:103060001C2059600E99A3F81AB0996010991A8320
:10307000D96011991961129959610C9902F11C0BCF
:1030800019600D4BB3F80CC002F130030493B1E5A5
:103090000CA8FDF7EFFD1C22064B04920D9A4FF091
:1030A000080B5A600C9A1A60034BB3F80CC0A1E5E8
:1030B000082501209CE300209004012080040120C9
:1030C000E804012074040120700401206C04012034
:1030D000780401207C04012008010101010103079B
:1030E00050EA001008050120B8E30020584B1B6887
:1030F000072B7FF659AD57494A8802F108008342F1
:103100007FF452AD41F6FA708B8883423FF64CADA6
:10311000DFF854B10831CDF804B031F8020C00905A
:103120000CA8029011F8080CFEF7FAFDDDF8323019
:10313000BDF830204BF8043C2BF8062C1B0C464AFB
:1031400003F1060B1A33B2F80CC0049352E5404B5E
:103150001B680C2B7FF428AD40F6F2734FF0000B88
:103160003C480CAA01920289ADF81CB09A4228BFD3
:103170001A4607AB0093D0E90001384BFEF760F820
:1031800028B3374B0D99BDF81C2059600E995A830E
:103190009960109983F819B0D9601199520019619A
:1031A000129959619DF84C10197666E7284B1B68F7
:1031B000042B7FF4F9AC274B0CAA1968C8B200386D
:1031C00018BF0120C1F30721FEF77EFE34E5224936
:1031D00005220423B1F80CC0E8E441F6F4734FF083
:1031E000000B1C4A1F4910880DF11A02984228BF93
:1031F00018460CAB009307ABADF81AB0CDF81CB075
:10320000CDF830B0FFF776FA0028E0D0144B0C99D7
:10321000BDF81A2059600799A3F80AB01A811960FD
:103220000D4B02F10C0BB3F80CC002F12003049318
:10323000E0E4084903F1080004920BF089FB049ACA
:10324000D0E4054908220423B1F80CC0AEE400BF65
:10325000082501200805012090040120B8E3002082
:103260009CE30020A8E30020A2E3002010B54C4B13
:1032700086B01A787AB96846FDF7F2FD48BB02A815
:10328000FEF774F8002847D104A800F06BFB002873
:1032900065D106B010BDFDF727F8DFF81CC1DCE9E9
:1032A000002E801A4FF00002DFF810C161EB0E0112
:1032B000844572EB0101DED23A48394B01681A703D
:1032C0000131394B016068461A60FDF7C9FD0028DD
:1032D000D5D0082240F201314FF0000C0B20334BC7
:1032E000009C1A615C61324A019CC3E902C05960CA
:1032F00018461C211A609C61FFF778FA2D4A2B4B67
:103300001268D861002ABAD018462021904702A836
:10331000FEF72CF80028B7D0082240F201314FF018
:10332000000C0F20214B029C1A615C61204A039C17
:10333000C3E902C0596018461C211A609C61FFF75E
:1033400055FA1C4A194B1268D861002A9CD01846BD
:103350002021904704A800F005FB002899D040F2F6
:10336000013C00221A200821104BC3E901C2104A77
:10337000C3E90301DDE90401C3E9050118461C2185
:103380001A60FFF733FA0B4A084B1268D861002A1B
:103390003FF47FAF20211846904706B010BD00BF14
:1033A000F04D01207C040120B804012028290120CF
:1033B0004C474953F804012038A80020A08601009A
:1033C00000487047DCEE00100048704760EE0010C7
:1033D00000B51C4A0346117883B031B363B940F29B
:1033E00009424FF44173DFF860C0ACF80220164880
:1033F000ACF8003003B000BD062B1DD8134ADFF82F
:1034000048C052F8231060460023013903E01F2B07
:1034100020F8022F12D011F8012F0133DBB2002A5D
:10342000F5D15B0043F44073E1E7019011211046B0
:1034300007F0C6FD019BD1E70020DBE74FF4507396
:10344000D5E700BFA44D01200CDF002044EE0010A2
:1034500000487047CCEC0010012906D1137803F026
:103460006003402B03D00020704701207047537841
:10347000012BF8D19388072BF5D111464FF4A9738E
:10348000014A09F083BB00BFF0EC0010012300B536
:1034900083B001A90020ADF8043008F015FE00F05B
:1034A000DBF800F023F900F025FB0A4D0A4C00215F
:1034B0004FF0FF3008F080FE00F0D4F800F01CF967
:1034C00000F038FB08F0F0FD28702368013323601A
:1034D000EDE700BFE04D012050040120C9B130B537
:1034E00005460C4693B0402C224628BF4022294670
:1034F0000DF10600ADF804200BF02AFA054801A9E9
:1035000005F076FABDF80430E41A1D44EBD113B08F
:1035100030BD70476CDF002008B504F003FA82224A
:1035200003464221164805F0B1F904F0FBF9A02248
:1035300003464221134805F0A9F91348FFF796F90D
:1035400000F066F90023114A114913600B6005F081
:1035500019F94FF0FF3E6FF0004C0E4B0E4AC318A6
:1035600041F100019E457CEB01003CBF7346614682
:103570000A48C2E90031BDE8084008F0ABBB00BF13
:103580005CDF00206CDF0020DD34001054040120DB
:103590005004012040420F0018A800208D34001074
:1035A00010B5204A204B1268196892B08A4221D186
:1035B0001E4B1F4A5868516A1B6888420FD908245D
:1035C0001C4801A905F0C6F938B1BDF804100DF189
:1035D0000600FFF75BF9013CF2D112B010BD926A10
:1035E0009A421CD3FCF788FE00221146104605F0D3
:1035F00055FCFEE71A6005F0C5F84FF0FF3C6FF090
:1036000000440D4A094B801841F10001844574EBD8
:1036100001023CBF60462146C3E90001CFE7884272
:10362000E0D1CCE7500401205404012018A8002068
:1036300000000B405CDF002040420F00024A13688C
:1036400001331360704700BF50040120014B18780C
:10365000704700BFE04D01200022014B1A707047F7
:10366000F74D012070B50020B0B009F0C9FB1B4D2B
:10367000044608B12B786BB100202C7009F0D6FB02
:1036800008B930B070BD402208A9002009F0DAFB6B
:1036900030B070BD079301F0E3FC064601F0E6FC94
:1036A000012200920E4A079BA2FB0010A2FB061209
:1036B0000C4980099209CDE9021201930490A021DE
:1036C000094A08A807F0BEFA08A90246079809F0B7
:1036D0004BFC079809F0FEFBCEE700BFF74D012039
:1036E000D34D621050EA0010D4EA00100022014BC2
:1036F0001A707047F54D01202DE9F04300253F4C2D
:1037000093B02BE02368EFF3108172B6D3E8CF0FAC
:1037100001220028FAD1C3E8402F0028F6D1BFF3D8
:103720005F8F2389628920689B1A02D5E289013262
:103730001344C0E88F5F81F31088E2890DF1060120
:103740009A4210D04022002009F000FE80B2ADF86D
:10375000040040B1204601A905F0B0F8002009F0AE
:10376000EBFD0028CED108F09FFC074600283AD098
:103770004FF00009224E234D347805F1020844B978
:103780002946214805F0E6F8204BE0B101221C80D3
:103790003270002009F0F6FD1C4C034698B12188D8
:1037A0002A880020521A9A4228BF1A46414409F03A
:1037B000D7FD22882B88104480B2834220800ED906
:1037C000B9463478DBE7B9F1000F02D113B0BDE898
:1037D000F083002013B0BDE8F04309F0CBBD002416
:1037E000B9463470CBE7064B1870074801A905F0BD
:1037F000B1F80028F9D113B0BDE8F0835CDF0020F8
:10380000F54D0120E42801206CDF0020BA4D012095
:1038100070B5012004F092F804F0B6F80023094ACC
:10382000094D0A492B701370094A0860094C0A486F
:103830000A4913700A4E0B4A237003700B703370E1
:10384000136070BDDF4D0120F14D0120E404012023
:10385000EF4D0120E84D0120C64D0120DD4D012036
:10386000E54D012090270120134A034610B5116849
:10387000EFF3108C72B6D1E8CFEF0120BEF1000F4C
:10388000F9D1C1E84E0FBEF1000FF4D1BFF35F8F45
:103890000A49087800280CBF0120002005D14FF00C
:1038A000010E074C237081F800E000231268C2E883
:1038B0008F3F8CF3108810BDE4040120F14D0120EE
:1038C000DF4D0120034B1878A0F10200B0FA80F020
:1038D00040097047F14D0120164A00B51368EFF317
:1038E000108172B6D3E8CFEF5FF0010CBEF1000F8C
:1038F000F8D1C3E84ECFBEF1000FF3D1BFF35F8F15
:103900000D4B93F800C0BCF1010F0BD093F800C031
:10391000BCF1020F06D000231268C2E88F3F81F38A
:10392000108800BDDFF814C08CF800000320187068
:10393000F1E700BFE4040120F14D0120E84D012032
:10394000034B1878A0F10100B0FA80F040097047ED
:10395000F14D0120024B1878003818BF0120704744
:10396000F14D012030B54F4C0546237883B0012B33
:1039700040D0DAB2032A02D0002003B030BD4A4B57
:103980001A784AB1494A1278022A77D00093FEF792
:1039900097FB0022009B1A70454B1A68EFF31081C9
:1039A00072B6D2E8CFCF0120BCF1000FF9D1C2E846
:1039B0004C0FBCF1000FF4D1BFF35F8F18680023E8
:1039C0003C4A12782370C0E88F3F81F310883A4850
:1039D0003A49027008780028CED034480B7001783C
:1039E000AA70697036492B700A68EB706A60012012
:1039F00003B030BD2C4B1978002930D02C4B1A68FD
:103A0000EFF3108172B6D2E8CFCF0120BCF1000FE6
:103A1000F9D1C2E84C0FBCF1000FF4D1BFF35F8FB6
:103A200022781B68012A05D00022C3E88F2F81F37A
:103A30001088A1E7022020700020C3E88F0F81F3D7
:103A400010881F49A8700B68E87001330B60174994
:103A50001A4809782A70027069706B60C7E7CDE96F
:103A60000013FEF70DFB174A10481278019BD2B2E3
:103A7000022A027008D001221A70BFE716200093B4
:103A800003F08EFE009B81E7162003F063FE009991
:103A900016200A4603F002FE1620009903F04AFEA3
:103AA000019BE8E7F14D0120E54D0120C64D0120C5
:103AB000E4040120E84D0120DD4D0120EF4D0120FF
:103AC00090270120DF4D0120064B1B7803700BB1BE
:103AD000054B1B780549064A0978126843708170C6
:103AE00042607047EF4D0120C64D0120DD4D0120A1
:103AF0009027012008B503F089FB01F021FB094B59
:103B0000186002F04BF8084B1860002001F0F6FA3C
:103B1000002002F021F800230449054A0B701370BD
:103B200008BD00BFDC280120D8040120CE4D0120B3
:103B3000D04D01202DE9F04FA1B004F023FE044642
:103B40000D4608F0B1FA002800F08C80B34B1B78CA
:103B500083B1B34B1A78002A40F09A80B14A1078AA
:103B6000022818BF0120FFF77FFEAD4B187021B06F
:103B7000BDE8F08F0393FFF7A5FEC8B1AA49AB4893
:103B8000D1E90021039BA21A65EB010190428B4110
:103B90000ED203F0B9FCA64B1A78012A00F06F840C
:103BA000022A00F09F80002202201A70FFF794FE84
:103BB00003F0D2FA0028DAD09E49A1F1400003F0C8
:103BC00083FA03460028D2D0974AC2E900459A4AB0
:103BD000B2F840201446002AC9D0964A12F8402C68
:103BE0001D2A00F2848001A151F822F0FF3C001050
:103BF000733D00103D3D0010F14300109D43001047
:103C00006B420010A14100106F3B00107B4100107F
:103C1000654100104D410010EF3C0010EF3C0010DA
:103C2000EF3C0010EF3C0010EF3C0010054100108D
:103C3000BB4000107D40001055400010AF3F001009
:103C4000813F00105F3F0010353F00100B3F001018
:103C5000633E00103D3E0010D13D0010833D00103A
:103C60007D3E001003F050FC714B1A78012A34D0CD
:103C7000022A00F0FE83002203201A70FFF72CFEB8
:103C80000022664B1A7021B0BDE8F04F03F098BADD
:103C9000FFF718FE00283FF46AAF03F05DFA002832
:103CA0003FF465AF5F4A1378012B00F0EE8301F01B
:103CB000FFFE02235B4A0221127810A88DF84120F2
:103CC0005B4A8DF84010137003F052FA0022564BF5
:103CD00052491C600A705D6049E7039301F0EEF9F8
:103CE000039BC8E7039301F015FF039B5BE7FF23EA
:103CF000012110A88DF8403003F03AFA37E740224E
:103D0000002110A80AF034FE012C00F08F834A4BEA
:103D10005B78092B00F26286002B00F08783013B61
:103D2000082B00F28383DFE813F067075307A3082B
:103D3000740781038103810381037D07012C00F057
:103D4000E9833D4B5B78002B00F0E4835A1E012A87
:103D500000F21A870393FFF7B5FD039B002840F09C
:103D60007D8601222F490B702D4B18702B4B1A703A
:103D7000FDE60123022110A8ADF8403003F0F8F968
:103D8000F5E61C2311A83C220021054610930AF0F9
:103D9000EFFD022C40F2CC83274BB3F801103C29F5
:103DA00028BF3C21284603F019FC039003F0E2FBF6
:103DB000044603F0E5FB039A44EAC013111D10A862
:103DC00089B28DF84130ADF8422003F0D1F9CEE64A
:103DD0001B2200231092ADF8443003F0D7FB039070
:103DE00003F0C8FB044603F0CBFB0023039A44EA2C
:103DF000C01C6CF307034FEA124E100E62F30F2340
:103E0000120A62F317438DF845006EF31F63062113
:103E100010A8CDF8413003F0ABF9A8E6CE4D012053
:103E2000D04D0120CF4D012030A800208096980071
:103E3000E64D0120DC0301209C0301204FF61A739C
:103E4000012CADF8403007D0A84B5B78002B00F078
:103E50008586012B00F06C86022110A803F088F9FA
:103E600085E619220023042C10928DF8443000F2CC
:103E70000685052110A803F07BF978E61D233C2276
:103E8000002111A810930AF073FD994B1B78012BA8
:103E900040F00D83974A511E63189342984640F2B2
:103EA0000683924B0DF142065B781F46002B00F013
:103EB0004483531C0CE0A842C0F03C831846039393
:103EC00001F0BAF9039B2B447A1E174600F03583A4
:103ED000984540F22F8313F8012B12F03F010DBFDC
:103EE0000825C81DC50840211206A8EB030006EBF3
:103EF0000504E0D520AA944200F21C8330460393C7
:103F0000264601F0CFF9039BDEE74FF61873012C2C
:103F1000ADF84030A0D0754B5B78012B9CD803F0F6
:103F200029FB002898D1714A734B52788DF84100D3
:103F30001A7091E74FF61773012CADF840308BD013
:103F40006A4B5B78012B87D803F014FB002883D1E0
:103F5000664A6A4B52788DF841001A707CE74FF63A
:103F6000167210924FF00002614BADF844201B789E
:103F7000022B00F0F382062110A803F0F9F8F6E511
:103F80004FF61573012CADF840303FF465AF574B39
:103F90005878831C9C42FFF45FAF594902F01AF92C
:103FA00000283FF459AF00238DF8413054E7142323
:103FB0003C22002111A810930AF0DAFC4C4B1B782C
:103FC000022B40F074824B494A1E04EB020C8C45D4
:103FD00040F26D82454B0DF142025B781E46002B8C
:103FE00000F0B5826746013115E020ADAC4200F229
:103FF000AB82CDE9031301F0F9FEDDE9031322469C
:104000001944CDE90321FFF719FBDDE90321731EF4
:104010001E4600F09C828F4240F2968211F8010BFE
:1040200010F03F0303F107030CBF0823DB08A7EBE5
:10403000010C9C4502EB0304C0F086820506D4D433
:10404000CDE90423039101F0D1FE0399059B049A65
:104050001944D6E74FF61373012CADF840303FF406
:10406000FBAE224B597801F003000130C1F380010F
:1040700001F0D2F800238DF84130EDE64FF61273CF
:10408000012CADF840303FF4E7AE194B1B78002B04
:104090003FF4E2AE1549A21E4978002908BF4FF44B
:1040A0008071C81DB2EBD00FFFF4D6AE022B1448BE
:1040B00000F0668501F0C0F875E74FF61173042C27
:1040C000ADF840307FF6C8AE084BD3F801000028A9
:1040D0003FF4C2AE01F012F8044BD3F8010001F036
:1040E0003BFD00238DF84130B6E600BF9C03012064
:1040F000E64D01209D030120F24D0120F34D0120EA
:104100009E0301201023062CADF840307FF6A4AEAC
:10411000B04B1A78002A3FF49FAEAF49022A4D787F
:104120008E78D1F8034028463146039300F03A8652
:1041300001F09AFC039B002C40F0EE851B78022BCB
:1041400000F0CE8501F086FC03462DE7A34B03214A
:104150001B6810A81A0CADF840308DF8422003F00F
:1041600007F804E5022C00F218820923022110A8A6
:10417000ADF8403002F0FCFFF9E44FF60873052C6F
:10418000ADF82C3007D9934B1B78012B00F00F862C
:10419000022B00F0F08502210BA802F0E9FFE6E413
:1041A00022468C4B8C491B78013C022B01EB020A06
:1041B00000F0F1824FF0060C3C22002111A803937D
:1041C000CDF840C00AF0D4FB032C11AD40F2AA8117
:1041D000039B012B40F0A6817F4B5988002900F0FA
:1041E00038861A7912F00203144600F0F38512F0B3
:1041F0000103984640F009874FF0000C184610ADB7
:104200000DF1400E0EF1040E7346002900F0FA86FF
:10421000013900F005812646714AF3469946E24687
:1042200012880BAF059104E0049A002A00F0BA83CB
:10423000013A39463046049201F08AF80390FFF7BC
:10424000FDF903980228EFD00128DE464B46D446FC
:10425000059940F0D786BAF10F0F00F0D0860B9A7F
:104260000AF1010CCBF80020CCE72146594A5A4804
:104270001278013C022A154600EB010A00F09381F6
:1042800005220021109211A83C2203930AF070FB32
:104290000022012C0B9240F23F81012D039B40F044
:1042A0003B814D4989788B46002900F02D86964642
:1042B000914693461046DFF8348107910DF143078C
:1042C0000893D045434680F0188113F8012B9507D9
:1042D00016461C4640F1F480B9F1000F26D0404B41
:1042E00002F01102012A1B8800F0A283F14604E0CB
:1042F000049B002B00F0CF80013B0BA90E20049300
:1043000001F026F80390FFF799F903980228EFD0FF
:10431000CE464FF00009012840F0A9803B1D20AA9D
:10432000934200F2F6850B9A3A601F4616F010038E
:1043300000F0AE82AAEB0403032B40F3DE80294B8E
:10434000F007B3F800C0D8F80130254A069377D4B7
:1043500061460C461388059204E0049B002B00F094
:104360009A80013B0BA93046049300F0F1FF0390C3
:10437000FFF764F903980228EFD001282146059A37
:1043800075D1194C0B9B24682340069C9C4200F07D
:10439000A284002900F09C840139DAE74FF6047307
:1043A000052CADF840307FF657AD0B490C464878E8
:1043B00000F03CFF607801F0C3FF00230848094A81
:1043C000B4F802C0A188A0F800C011808DF8413077
:1043D00042E500BFE64D01209C030120F0EE0010F5
:1043E000C8150020B84D0120EC0401209F030120D6
:1043F00003F08AF8AB4B1A78012A00F09483022A62
:1044000000F08C83002201201A70FFF765FA032365
:10441000022110A8ADF8403002F0AAFEFFF7A7BBBA
:10442000B8F1000F3FF4F7AE0E26F5E60024A11C0C
:1044300010A889B28DF8414002F09AFEFFF797BBB1
:104440006446138802E0049B2BB3013B00213046F5
:10445000CDE9043200F07CFF0390FFF7EFF80398FA
:10446000059A0228EFD00128A4463FF471AF024616
:1044700012E0039301F04EFB039BFFF7FCBB039399
:1044800000F01CFE039BFFF78EBB039300F0F4FDCE
:10449000039B854A0FE4022210A8391A89B28DF8CD
:1044A00041B08DF8422002F063FEFFF760BBFF23AE
:1044B000022110A88DF8413002F05AFEFFF757BBD9
:1044C000B9F1000F40F04D82AAEB0403032B40F337
:1044D0001585D8F80130B20608F105080B9340F1B4
:1044E00025824FF000090120704A1360079B0BF1F1
:1044F000010B013B07937FF4E4AE01280246CBD1C8
:10450000B9F1000F40F0CF84BEF1000F40F0B58448
:104510000122C1E701231DE4032110A802F028FEB7
:10452000FFF725BB042110A802F022FEFFF71FBBF6
:10453000002137E4FF238DF8413010A8311A89B2E9
:1045400002F016FEFFF713BBFF238DF8413010A8D1
:10455000111A89B202F00CFEFFF709BB012C3FF4DF
:104560000AAD534B587801F0DDFE00283FF403AD4F
:104570000E2001F0EBFE0E224E4B1A6002F030F8D6
:104580004FF00003020C8DF84130030EADF84200ED
:104590008DF844208DF84530EDE4454BB3F801002B
:1045A00004F0FAF8E1E5052300213C2211A810935C
:1045B0000AF0DEF90021012C0B91ADD93C4C60785A
:1045C00001F0B0FE07900028A6D00021394AA37858
:1045D000174699461160002B00F0A48489460846CE
:1045E000069304F103080DF14306D045434680F0DD
:1045F000938413F8012B9B46940702F001031546A0
:1046000003F10A0340F18E80002900F04B813A68E3
:104610009A4200F0C1820A2A05D00A20039338602A
:1046200001F094FE039B244A08930392128804E04D
:10463000059A002A00F0CA82013A0BA90E200592C1
:1046400002F012FA0490FEF7F9FF04980228EFD066
:104650000021089B012859D106F1040C20AA944599
:1046600000F2CA840B9AEC06326000F10382002942
:1046700000F0A084D8466646069B0120013B09F164
:1046800001090693B1D13B680A2B05D00A2003919A
:10469000386001F05BFE0399074B1A8859B30BA9E8
:1046A00010E000BFE64D0120CF4D0120EC040120B9
:1046B0009C030120D4040120C8150020DDE9041268
:1046C00022B3013A0E20CDE9041202F0CDF9039095
:1046D000FEF7B4FF03980228F0D00128034616D154
:1046E000321D20A98A4212D80B99316016460EE07D
:1046F000049A5AB1013A00210E20049202F0B4F952
:104700000390FEF79BFF03980228F1D0034610A800
:10471000311A89B28DF841908DF8423002F028FDAF
:10472000FFF725BA31B33A680A2A05D00A20039365
:10473000386001F00BFE039BA34A0593128803E047
:10474000049A002AE2D0013A0BA90E20049202F04A
:104750008BF90390FEF772FF03980228F0D001282E
:10476000059BD3D1321D20A98A4200F245840B99C2
:1047700031601646AAEB0B02032A40F32D84D8F8C9
:104780000120A9060B9240F1B380904B1A600021E2
:1047900008F1050870E7062311A83C220021054610
:1047A00010930AF0E5F8032C7FF6BCAE884A5078E7
:1047B000144601F0B7FD00283FF4B4AE002385494C
:1047C00060880F4680460B60002800F04C832479F7
:1047D00004F001000A30086001F0B8FD14F0020393
:1047E000264640F0A3831C461846DFF8EC91AAEB5E
:1047F0000902032A31DDD9F800300B93724B1A8875
:1048000002E0049A4AB3013A0BA93046049202F03E
:104810002BF90390FEF712FF03980228F1D001282C
:104820001BD1631C98451C4609F10409DFD13B6884
:104830000A2B03D00A20386001F088FD624B1E88E5
:1048400001E056B1013E00210E2002F00DF9039067
:10485000FEF7F4FE03980228F3D00346294610AD74
:10486000491B4FEA142C284689B28DF841408DF837
:1048700042C08DF8433002F07BFCFFF778B9544B0F
:10488000D3F8010002F0F2FCCDF84100FFF7F1BAD5
:10489000F10740F1FB81B9F1000F00F0DB819E468A
:1048A000A04623E6EA0600F1E680474A03923A680A
:1048B0009A4203D018463B6001F048FD039B1A88DA
:1048C00004E0049A002A00F0C381013A002128463E
:1048D000049202F0C9F804460390FEF7AFFE039875
:1048E0000228EED0012840F0B381D8460799C3E6EC
:1048F0003A689A4203D018463B6001F027FD324BDC
:104900001B8804E0049B002B3FF400AF013B0BA984
:104910002846049302F0A8F80390FEF78FFE039850
:104920000228EFD001283FF432AFEFE6264A138881
:1049300004E0049B002B3FF49AAD013B0BA93046E9
:10494000049300F005FD0390FEF778FE039802281B
:10495000EFD001287FF48BAD4FF00009DDF820E0A7
:10496000C4E5194BF1461B8804E0049B002B3FF47F
:104970007EAD013B0BA90E20049300F0E9FC0390EF
:10498000FEF75CFE03980228EFD00128CE467FF4A4
:104990006EAD3B1D20AA934200F2BB820B9A3A6097
:1049A0001F4691E54A46D4460346521B4FEA1C2E49
:1049B000284691B28DF841C08DF842E08DF8433021
:1049C00002F0D6FBFFF7D3B8C8150020EC04012095
:1049D0009C030120D4040120A1030120EF2B7FF6CA
:1049E00025ADF03B0F2B3FF621AD01A252F823F08D
:1049F000F94E00102D4400102D4400102D440010DD
:104A00002D4400102D4400102D4400102D440010A2
:104A10002D4400102D4400102D4400102D44001092
:104A20002D440010774B0010ED4E00106D4B001020
:104A3000CDF80CE004E0059B002B3FF42CAD013BCE
:104A40000BA93046059300F083FC0490FEF7F6FDB9
:104A500004980228EFD0DDF80CE05CE40221A34BBF
:104A600010A81B788DF840108DF8413002F080FBC3
:104A7000FFF77DB86646AAEB0B02032A40F34C828F
:104A8000D8F801403A68A346994C9A42248805D048
:104A9000184603913B6001F059FC0399954B039133
:104AA0001A8804E0089A002A00F09080013A002158
:104AB0002846089201F0D8FFCDE90400FEF7BEFDBC
:104AC000059B0498022BEDD0012B03997FF41EAEB9
:104AD0002346884A05911288089303E0049A002A25
:104AE00074D0013A0BA92846049201F0BDFF03904F
:104AF000FEF7A4FD03980228F0D001280599089B31
:104B00007FF404AE7C480B9A00680240934500F0A5
:104B1000A781002B00F0A281013BDAE7039300F0AC
:104B2000F9FF039B6EE4039300F0C8FA039B69E46A
:104B3000724B1B78012B7FF48FA9714B1B78012BD3
:104B40007FF48AA96F4B1B78012B7FF485A902F0B3
:104B500013FC00283FF480A9FFF725BA039302F065
:104B6000D3FC039B8DF84130FFF776B94023022434
:104B70008DF842305BE4102304248DF8433056E472
:104B800001F062FAFFF70FBA022110A8ADF8401049
:104B900002F0EEFAFEF7EBBFE8063FF53CAD554AF2
:104BA00004910392128802E0089A7AB1013A0BA9A3
:104BB0002846CDE9082301F057FF0590FEF73EFD9A
:104BC0000598099B0228EFD0049943E502239EE54E
:104BD000DFF840C11824BCE80F00CDF84200CDF842
:104BE0004610CDF84A20BCE80300CDF84E30CDF891
:104BF0005200CDF856101AE4434B0E2407CB1B8805
:104C0000CDF84200CDF84610CDF84A20ADF84E3030
:104C10000DE43E4B062418689B88CDF84200ADF8A1
:104C2000463004E400234FF0010C1021CDE900C30D
:104C3000374A0BA806F006F80BA809F0E9FC0BA907
:104C4000441C421C0DF1420009F082FEFFF7EFBB4D
:104C500023465CE5274A138804E0049B002B3FF4BD
:104C60001AAC013B00213046049300F071FB039025
:104C7000FEF7E4FC03980228EFD001287FF4F7AB9D
:104C8000A0464FF0000EDDF820902FE4194A13885B
:104C900004E0049B002B3FF4FEAB013B0BA9304624
:104CA000049300F055FB0390FEF7C8FC039802281C
:104CB000EFD001287FF4DBAB3B1D20AA934200F22A
:104CC00028810B9AA0463A604FF0000E1F460DE473
:104CD0001122FFF7E1BB4FF0000E08F1050805E4D3
:104CE00001F0E2F90346FFF75FB900BFCF4D0120A5
:104CF000B84D0120C8150020EC040120F24D012020
:104D0000F34D0120E64D012060EA001050EB001049
:104D100058EB001038EB0010039303F033FDB04A5A
:104D20002346944228BF13461A184FF0FF3041F132
:104D3000000C6FF00041904271EB0C0E3CBF02463C
:104D40008C46039B904667461C462378022B3DD039
:104D500000F080FE03466B401E4209D0A14B5B6A07
:104D60009F4230D89F4A926A424501D29F422AD040
:104D70002346FFF7E3B99C4B587801F0D3FA00289B
:104D80003FF409AA082001F0E1FA08229649974B5E
:104D9000D1F802001A6001F0F7FC00238DF82D30E5
:104DA000FFF7F9B901F092F9039BFFF7C4B98E4BF5
:104DB0000020D3F8023010A9109300F0C9FA01289E
:104DC0007FF4E9A9E9E7FEF739FCBEE701F06CF9E9
:104DD0000346C0E788461E461846854FAAEB0703E0
:104DE000032B31DD3B680B93824B1B8802E0049B55
:104DF00053B3013B0BA92046049300F0A9FA03909A
:104E0000FEF71CFC03980228F1D001281CD1731C6A
:104E100098451E4607F10407E0D1764B34461A88C0
:104E200002E0049A5AB1013A00210E20049200F0E7
:104E30008FFA0390FEF702FC03980228F1D02A466D
:104E4000A446034610ADB0E52A46B446034610AD6D
:104E5000ABE52A468C460B4610ADA6E5112356E479
:104E600008F1050808E429460346044610ADF7E4B6
:104E700011210BA806F0A4F8DEE65E4B1B8804E0C7
:104E8000049B002B3FF4F3AA013B00210E20049366
:104E900000F05EFA0390FEF7D1FB03980228EFD0F2
:104EA0000246FFF7F9BA534B0BA91B8805E0DDE971
:104EB0000413002B3FF4DBAA013B0E20CDE90413C1
:104EC00000F046FA0390FEF7B9FB03980228EED0F3
:104ED000012802467FF4E0AA3B1D20A98B423FF641
:104EE00017AB0B9939601F46FFF7D6BA0823012488
:104EF0008DF84230FFF79BBA0723F8E701280246F6
:104F00003FF402ABFFF7C8BA0A460DF14307FFF7BB
:104F1000C3BA0822FFF7C0BA0346012B3FF4B3AB74
:104F2000FFF7F5BB0DF14306FFF7F1BB314B9B4695
:104F30001C8803E0002C3FF490AC013C002130467B
:104F400001F092FD0390FEF779FB03980228F1D05F
:104F50000128034675D1002410AD0DF1400A0390DD
:104F60000AF104039A469946B8F1000F31D0B8F11E
:104F70000103984623D03246BBF800300BA904E069
:104F8000079BDDE90521BBB1013B1046CDE90613C6
:104F9000059201F069FD0490FEF750FB0498022889
:104FA000EED0012808D10F2C4FD00B9B0134CAF84A
:104FB0000030D5E766467AE44946034650E43B684C
:104FC0000A2B04D00A2318463B6001F0BFF90E22D9
:104FD000D2E75146039B43E4034600219DE700BF0F
:104FE000C0C62D0000000B409C030120D40401200A
:104FF000A1030120C81500200823FFF788BB4A46FB
:105000000823D2E41A460346CFE4144B0E461A880E
:1050100002E0049AE2B1013A00212046049200F035
:1050200097F90390FEF70AFB03980228F1D00128B4
:10503000314603463FF4E0A82A464FF0000C10AD7D
:10504000B3E42946002410AD0AE44946082307E4E6
:10505000944603462A4610ADA7E400BFC8150020B9
:10506000014B1868704700BFDC280120014B18680D
:10507000704700BFD804012010B50121082002F0BC
:1050800059FB0121092002F055FB002201210920D2
:1050900002F004FB4FF050444FF440730022A36130
:1050A0000121A3630B2002F0F9FA01210B2002F089
:1050B00041FB4FF400632362236410BDF0B585B05B
:1050C0006D4601274FF050460B4B0FCB8DE80F007C
:1050D00055F8044B0021204602F02CFB002220460C
:1050E000114602F0DBFA04AB07FA04F49D42346483
:1050F000EED105B0F0BD00BFF4FE001010B5A0B1B8
:105100000B4B984228BF18464400052003F02EFEA2
:1051100020440138B0FBF4F0064B1B6883422CBFDF
:105120000020C01A044B186010BD044CEDE700BF0E
:1051300080969800CC1500208804012080841E00F1
:105140002DE9F0410026304D2C682E6003F01AFB4B
:105150004FF4007C88464FF05041074632464FF4EA
:1051600080703346DFF8ACE0C1F838C008E08861F1
:105170000133B3F5004F4FEAD3021CD01EF80220D2
:1051800003F007063241D2074CBFC1F818C0C1F87E
:1051900020C008622A68002AE9D0033AFDD22A68B2
:1051A0008861002AE4D0033AFDD20133B3F5004F01
:1051B0004FEAD302E2D103F0E5FA4FF050434FF447
:1051C00040722C60C41B1A644FF0050061EB0806A6
:1051D00003F0CCFD0D4B0E4DA3FB0032920CA2FB55
:1051E000043402FB064213F5004342F100021B0C9B
:1051F00043EA024305202B6003F0B8FD2B685B00F7
:10520000B0FBF3F0BDE8F0818804012083DE1B438E
:10521000CC150020F4EE0010024A034B10701970F8
:10522000704700BFCA150020D24D0120014B1870F5
:10523000704700BFD94D012070B54FF0504C4FF46E
:105240000074CCF83840002928D00D4606460023CB
:105250004FF48071124804E0CCF8181001339D42DD
:105260001CD0DA08B25C03F0070E42FA0EF2D20745
:105270004CBFCCF81840CCF82040CCF82010026885
:10528000002AE9D0033AFDD20268CCF81810002AAF
:10529000E4D0033AFDD201339D42E2D170BD00BF9C
:1052A00088040120F8B54FF400724FF050431A649F
:1052B000CA1DD2080D46044640D0002109F058FB13
:1052C00000214FF050404FF48076DFF880C0066236
:1052D000DCF80030062B38BF0623033BFDD24268C2
:1052E0008661DCF8007001F00703C2F340224FEA48
:1052F000D10E02FA03F39FB1033FFDD2734614F8B7
:105300000E7001F0070E02FA0EF201313A43A94283
:10531000E254DCD14FF050434FF400729A63F8BD71
:1053200014F80E20013113438D4204F80E30CED113
:105330004FF050434FF400729A63F8BD0029BFD17B
:105340004FF050434FF400729A63F8BD8804012077
:105350002DE9F0414FF050434FF400754FF4807445
:105360003A4A9D611C6286460846116800296FD141
:105370001EF0010F9C6140F0AC811D621C62002494
:105380004FF050434FF4807199611EF0020340F0DA
:1053900005824FF050414FF400750D624FF4807557
:1053A0000D624FF050414FF480758D61CEF3800156
:1053B0000B44002940F002824FF050414FF4007539
:1053C0000D624FF480750D624FF050414FF48075BF
:1053D00023441EF008048D6100F0F9814FF400743D
:1053E0008C6101240D624FF050414FF480758D6146
:1053F000234413F0010F4FF400744FF050434FF467
:10540000807140F0C8811C6219624FF050434FF424
:10541000807199614FF050434FF400744FF48071E4
:105420001C6219624FF050434FF4807199614FF044
:1054300050434FF400744FF480719C6119624FF037
:1054400050434FF4807199610021AEE0880401203F
:105450000339FDD211689C61002900F036810339BF
:10546000FDD21EF00104116840F02D811D624FF045
:1054700050454FF480762E62002981D00B46033BC5
:10548000FDD21368AE61002B3FF47FAF033BFDD22A
:105490004FF400761EF0020F11680CBF2E62AE6151
:1054A0004FF050454FF48076CEF340032E62002932
:1054B0003FF477AF0339FDD21168AE6100293FF4A4
:1054C00075AF0339FDD2CEF3800611683344002E48
:1054D00040F06E814FF400762E624FF050454FF44D
:1054E00080762E6200293FF46FAF0339FDD2116838
:1054F000AE61002900F08C820339FDD21EF0080F46
:1055000023441168CEF3C00400F06A814FF40076A2
:10551000AE614FF050454FF480762E6200293FF483
:1055200062AF0339FDD21168AE6100293FF460AF6C
:105530000339FDD22344DB07146840F14D814FF459
:105540000073AB614FF050434FF480711962002C2F
:105550003FF45BAF033CFDD214689961002C3FF42B
:1055600059AF033CFDD24FF4007514681D621962F7
:10557000002C3FF457AF033CFDD214689961002C16
:105580003FF455AF033CFDD214689D611962002CB5
:105590003FF455AF033CFDD214689961002C3FF4F1
:1055A00053AF2346033BFDD211684FF400734FF015
:1055B0005045814C2B6423780BB34FF480760FE079
:1055C0000339FDD21168AE61002900F03C828C469F
:1055D000BCF1030CFCD2013B13F0FF0311680ED0A9
:1055E0002E620029ECD14FF050454FF4807100E05D
:1055F0002962013B13F0FF03A961F9D100210B4699
:1056000006294FF480764FF0504138BF06230E62D2
:10561000033BFDD24D688E611368C5F3402513B17D
:10562000033BFDD213684FF050464FF48077062BB2
:1056300038BF06233762033BFDD27168B761136838
:10564000C1F3402113B1033BFDD213684FF48076C0
:1056500045EA41054FF05041062B38BF06230E6244
:10566000033BFDD24F68136817F4007C8E6134D081
:105670000BB1033BFDD2002D00F07981136845F09A
:10568000040521784FF050464FF48070213103E03B
:10569000B06101390DD013683062002BF8D0033BA4
:1056A000FDD21368B061002BF3D0033BFDD201396A
:1056B000F1D14FF050434FF40072EDB29A63284697
:1056C0009A61BDE8F0819D61D1E61EF0010F3FF4C3
:1056D00054AE9D611C62012452E623B9012D07D00E
:1056E000022DCED183E0033BFDD2012D7CD1136886
:1056F0001EF0020E40F09980217821B34FF0504403
:105700004FF4807506E0033BFDD2013911F0FF0133
:10571000136818D0256253B1033BFDD21368A5610D
:10572000002BF0D1013911F0FF010BD025624FF0B1
:1057300050444FF4807300E02362013911F0FF01FF
:10574000A361F9D100234FF050414FF400748C63F2
:1057500000B1006820214FF050444FF400774FF41F
:1057600080760FE0033BFDD21368A661002B00F0AA
:105770003581033BFDD201391368AE444FEA500036
:1057800000F04F8110F0010514BFA7612762266267
:10579000002BE7D11DE19C61196236E64FF05043C2
:1057A0004FF4007199614FF4807119620123F8E59B
:1057B0004FF40076AE6190E6CA1500204FF05041DC
:1057C0004FF400758D614FF480750D62FCE54FF468
:1057D00000760E620D6206E64FF400732B62B1E6AE
:1057E0004FF400762E6294E6022D40F02A810225C5
:1057F00085480378002B77D01EF0020F74D021214A
:105800004FF050474FF4807602E0BE6101396BD013
:105810003E621368002BF8D0033BFDD21368BE61D3
:10582000002BF3D0033BFDD2F0E700264FF0200E13
:105830004FF050454FF48077062B38BF06232F6278
:10584000033BFDD26968AF611368C1F340214FEAA1
:10585000C178002B41D0033BFDD2BEF1010E13688D
:105860008C4448EA5606E7D19E464FF050414FF42B
:105870008075BEF1060F38BF4FF0060E0D62BEF107
:10588000030EFCD24B688D611168C3F3402309B14C
:105890000339FDD283EA0C0313F0010F14BF08256E
:1058A000012500B106602378002B62D04FF05044F0
:1058B0004FF4807004E0A061013B13F0FF0358D067
:1058C000206211680029F6D00339FDD21168A06169
:1058D0000029F1D00339FDD2EEE7BEF1010E8C4470
:1058E00048EA5606A8D1C0E72378CBB14FF050461E
:1058F0004FF4807404E0B461013B13F0FF030FD058
:10590000346211680029F6D00339FDD21168B46100
:105910000029F1D00339FDD2013B13F0FF03EFD191
:105920004FF050444FF400730178A363B9B11EF0F7
:10593000020F14D121214FF48070236202E0A06194
:1059400001390CD020621368002BF8D0033BFDD244
:105950001368A061002BF3D0033BFDD2F0E74FF0BA
:1059600050434FF4007228469A61BDE8F081042547
:105970003EE74FF050434FF400719963234B1B787F
:10598000002BECD04FF050404FF400714FF4807476
:10599000016204E08461013B13F0FF03DFD0046285
:1059A00011680029F6D00339FDD2116884610029FD
:1059B000F1D00339FDD2EEE74FF050434FF40074BD
:1059C000400810F0010514BF9C611C624FF4807404
:1059D0001C624FF050434FF480749C610139AE4417
:1059E000EAD14FF050434FF400701EF0010F14BF86
:1059F000986118624FF050434FF48070186291B96B
:105A000098610125BAE700BFD24D0120D94D012090
:105A100023441EF008044FF400710ED129622E6257
:105A2000E1E41946DDE70339FDD2116898610029E8
:105A3000E7D00B46033BFDD2E3E7A96101242E62C8
:105A4000D1E413681DE6013B13F0FF033FF4D6AD2C
:105A50002E62C8E54FF050435B68180900F08000E3
:105A6000C3F3012318437047CB0708D54FF05043C9
:105A70004FF4807210F0010F14BF9A611A628B0705
:105A800009D54FF050434FF4007210F0020F9A63A3
:105A900014BF9A611A620B0600D4704701064FF0DA
:105AA00050434FF4006201D49A6370471A64704700
:105AB00010B50121082001F03DFE01210B2001F06D
:105AC00039FE0121092001F035FE01210A2001F0F3
:105AD00031FE002201210A2001F0E0FD4FF0504488
